:100000000C9476000C949E000C949E000C949E0020
:100010000C949E000C949E000C949E000C949E00E8
:100020000C949E000C949E000C949E000C949E00D8
:100030000C949E000C949E000C949E000C949E00C8
:100040000C94AC030C949E000C947A030C9454030F
:100050000C949E000C949E000C949E000C949E00A8
:100060000C94F6030C949E00036EDB363D9A99992E
:10007000993DABAAAA2A3E000000803F072C7AA532
:10008000BA6CC590DA3B9365FC8BBC53F810FD3C11
:100090005692834DBD879D3AB63DCBC9BF5BBE73BB
:1000A000DA0FC93F00000000250028002B000404DF
:1000B0000404040404040202020202020303030310
:1000C00003030102040810204080010204081020EC
:1000D00001020408102000000008000201000003D3
:1000E00004070000000000000000410C11241FBEA6
:1000F000CFEFD8E0DEBFCDBF11E0A0E0B1E0EEE988
:10010000FFE102C005900D92A235B107D9F723E0B7
:10011000A2E5B1E001C01D92AC33B207E1F710E0F7
:10012000C6E7D0E004C02197FE010E948C0CC537C1
:10013000D107C9F70E948B060C94CD0F0C940000D8
:10014000FC01918D828D981761F0828DDF01A80FDF
:10015000B11D5D968C91928D9F5F9F73928F90E001
:1001600008958FEF9FEF0895FC01918D828D981770
:1001700031F0828DE80FF11D858D90E008958FEFAD
:100180009FEF0895FC01918D228D892F90E0805C76
:100190009F4F821B91098F73992708958BE492E0FA
:1001A0000E94C20021E0892B09F420E0822F0895EB
:1001B000FC01848DDF01A80FB11DA35ABF4F2C9104
:1001C000848D90E001968F739927848FA689B789D3
:1001D0002C93A089B1898C9180648C93938D848DAC
:1001E000981306C00288F389E02D80818F7D80837B
:1001F0000895EF92FF920F931F93CF93DF93EC013B
:1002000081E0888F9B8D8C8D981305C0E889F989D2
:10021000808185FD24C0F62E0B8D10E00F5F1F4FEF
:100220000F731127E02E8C8DE8120CC00FB607FC5F
:10023000FACFE889F989808185FFF5CFCE010E9448
:10024000D800F1CF8B8DFE01E80FF11DE35AFF4F6F
:10025000F0820B8FEA89FB898081806207C0EE897A
:10026000FF896083E889F98980818064808381E0E7
:1002700090E0DF91CF911F910F91FF90EF90089543
:10028000CF93DF93EC01888D8823C9F0EA89FB893D
:10029000808185FD05C0A889B9898C9186FD0FC034
:1002A0000FB607FCF5CF808185FFF2CFA889B98909
:1002B0008C9185FFEDCFCE010E94D800E7CFDF9172
:1002C000CF91089580E090E0892B29F00E94CE0024
:1002D00081110C94000008953FB7F8948091C201F9
:1002E0009091C301A091C401B091C50126B5A89B0E
:1002F00005C02F3F19F00196A11DB11D3FBFBA2FB8
:10030000A92F982F8827820F911DA11DB11DBC0117
:10031000CD0142E0660F771F881F991F4A95D1F7DC
:1003200008952FB7F8946091BE017091BF0180913C
:10033000C0019091C1012FBF089585ED8093BC004D
:100340008091BC0084FDFCCF10922602089540915C
:100350009801262F30E0240F311D21323105DCF4C5
:10036000209126022430C9F4FC0180E090E0861739
:1003700058F4309198012191DC01AA58BE4FA30F87
:10038000B11D2C930196F3CF80919801680F609373
:10039000980180E0089581E0089582E0089508952D
:1003A000E091C7018091C601E81730F4F0E0EA5A05
:1003B000FE4F808190E008958FEF9FEF0895909118
:1003C000C7018091C601981750F4E92FF0E0EA5A6E
:1003D000FE4F208130E09F5F9093C70102C02FEF56
:1003E0003FEFC90108958091C60190E02091C701B7
:1003F000821B91090895CF92DF92EF92FF920F93A3
:100400001F93CF93DF937C01262F972F8A01809132
:100410002702882391F0C62FD72F6E01C40ED51E58
:10042000CC15DD0571F06991D701ED91FC9101903A
:10043000F081E02DC7010995F3CF642F822F0E9430
:10044000A701C801DF91CF911F910F91FF90EF900D
:10045000DF90CF900895CF93DF931F92CDB7DEB793
:100460006983209127022223D1F020914A02203271
:1004700040F021E030E0FC013383228380E090E013
:1004800015C080912802E82FF0E0E75DFD4F9981CB
:1004900090838F5F8093280280934A0205C061E0B9
:1004A000CE0101960E94A70181E090E00F90DF91BC
:1004B000CF910895CF9381E08093270288E68093BF
:1004C00049021092280210924A028BE390E00E94A7
:1004D0007A050E947F05809126028111FCCF81E080
:1004E00080932602809325029FEF9093240210921E
:1004F00023029DE0909322028093010280910102E9
:10050000806D8093010280910002813061F410922D
:100510000002809101028093BB008091BC0083FDAA
:10052000F8CF85EC01C085EE8093BC008091260257
:100530008130E1F3809123028E3018F48091230200
:1005400001C08EE0A2E0B2E026E531E0F9019E2F85
:10055000921B981718F49D919193F9CF1092C701AF
:100560008093C6018E30F0F380E393E00E94DF01B8
:10057000C82F80E393E00E94DF0160E070E07C2FF1
:10058000862B972BBC01990F880B990B0E948E0E1E
:100590006093E4017093E5018093E6019093E70195
:1005A00080E393E00E94DF01C82F80E393E00E9484
:1005B000DF0160E070E07C2F862B972BBC01990F48
:1005C000880B990B0E948E0E6093E0017093E101FD
:1005D0008093E2019093E30180E393E00E94DF01C6
:1005E000C82F80E393E00E94DF0160E070E07C2F81
:1005F000862B972BBC01990F880B990B0E948E0EAE
:100600006093DC017093DD018093DE019093DF0144
:1006100080E393E00E94DF01C82F80E393E00E9413
:10062000DF0120E030E03C2F822B932B909355018B
:100630008093540180E393E00E94DF01C82F80E3A0
:1006400093E00E94DF0120E030E03C2F822B932BCF
:100650009093F7018093F60180E393E00E94DF011D
:10066000C82F80E393E00E94DF0120E030E03C2FC0
:10067000822B932B909353018093520180E393E05C
:100680000E94DF01C82F80E393E00E94DF0120E099
:1006900030E03C2F822B932B9093F1018093F0015B
:1006A000CF9108950E94820E1F920F920FB60F9263
:1006B00011242F933F934F935F936F937F938F9367
:1006C0009F93AF93BF93EF93FF938BE492E00E94CD
:1006D000D800FF91EF91BF91AF919F918F917F9142
:1006E0006F915F914F913F912F910F900FBE0F909F
:1006F0001F9018951F920F920FB60F9211242F93EF
:100700008F939F93EF93FF93E0915B02F0915C02D4
:100710008081E0916102F091620282FD12C09081BD
:10072000809164028F5F8F7320916502821751F070
:10073000E0916402F0E0E55BFD4F958F80936402E9
:1007400001C08081FF91EF919F918F912F910F9028
:100750000FBE0F901F9018951F920F920FB60F9219
:1007600011242F933F938F939F93AF93BF938091C7
:10077000BE019091BF01A091C001B091C101309123
:10078000BD0123E0230F2D3720F40196A11DB11DDB
:1007900005C026E8230F0296A11DB11D2093BD01BF
:1007A0008093BE019093BF01A093C001B093C1019B
:1007B0008091C2019091C301A091C401B091C50183
:1007C0000196A11DB11D8093C2019093C301A09316
:1007D000C401B093C501BF91AF919F918F913F919B
:1007E0002F910F900FBE0F901F9018951F920F9290
:1007F0000FB60F9211242F933F934F935F936F93F4
:100800007F938F939F93AF93BF93EF93FF938091C9
:10081000B900887F803609F49CC068F5883209F4F5
:100820005BC090F4803109F454C038F4882309F493
:10083000F6C0883009F44DC0F6C0883109F44CC0C8
:10084000803209F45DC0EFC0803409F468C048F418
:10085000803309F455C0883309F0E5C08093240241
:10086000D8C0803509F44FC0883509F45DC088349C
:1008700009F0D9C0D6C0883909F4C7C0A8F48837B0
:1008800009F467C038F4883609F463C0803709F486
:1008900060C0C9C0883809F4B8C0803909F45FC0A5
:1008A000803809F0C0C05BC0803B09F486C038F4D2
:1008B000803A09F466C0883A09F47FC0B4C0803C2D
:1008C00009F4A7C0883C09F4A4C0883B09F48AC095
:1008D000AAC08091010210C090912302809122024F
:1008E000981770F5E091230281E08E0F8093230228
:1008F000F0E0EE5FFD4F80818093BB0085EC86C009
:10090000809324028EC0E091230281E08E0F8093B9
:1009100023028091BB00F0E0EE5FFD4F8083909159
:100920002302809122026EC0E091230281E08E0FAB
:10093000809323028091BB00F0E0EE5FFD4F808347
:100940008091250281116DC081E08093000284EACC
:1009500061C083E0809326021092BC01CFCF8091CA
:10096000BC01803208F051C0E091BC0181E08E0FE3
:100970008093BC018091BB00F0E0E456FE4F808381
:10098000BDCF85EC8093BC00109226028091BC0103
:10099000803230F4E091BC01F0E0E456FE4F10826A
:1009A0006091BC0170E0E0919A01F0919B018CE9AB
:1009B00091E009951092BC0136C084E08093260234
:1009C0001092990110929801E0919601F09197018F
:1009D000099580919801811105C081E0809398016B
:1009E00010927601E091990181E08E0F8093990138
:1009F000F0E0EA58FE4F80818093BB00909199010E
:100A000080919801981708F479CF85E88093BC000D
:100A10000AC085EC8093BC001092260204C010929C
:100A200024020E949D01FF91EF91BF91AF919F9190
:100A30008F917F916F915F914F913F912F910F9087
:100A40000FBE0F901F901895CF92DF92EF92FF92FA
:100A50000F931F93CF93DF936C017A018B01C0E05A
:100A6000D0E0CE15DF0589F0D8016D918D01D6015A
:100A7000ED91FC910190F081E02DC6010995892B43
:100A800011F47E0102C02196ECCFC701DF91CF9116
:100A90001F910F91FF90EF90DF90CF900895EBE4BE
:100AA000F2E0A089B18982E08C93A089B1891C927F
:100AB000A485B5851C92A685B78580E18C93108EA0
:100AC000A489B58986E08C93A289B3898C918061D1
:100AD0008C93A289B3898C9188608C93A289B38905
:100AE0008C9180688C930288F389E02D80818F7DC2
:100AF00080830895682F80E393E00C942B0220916B
:100B00004A0290914902213208F04AC0809126029F
:100B10008111FCCF32E03093260231E03093250280
:100B20003FEF309324021092230220932202A9E285
:100B3000B2E042E052E0FA013E2F341B321718F4C3
:100B40003D913193F9CF1092010220910102990F4A
:100B5000922B9093010290910002913061F41092D7
:100B60000002909101029093BB009091BC0093FD14
:100B7000F8CF95EC01C095EE9093BC0090912602C1
:100B80009230E1F3909124029F3F79F0809124020A
:100B9000803241F080912402803331F084E005C03E
:100BA00081E003C082E001C083E01092280210922D
:100BB0004A0210922702089590E0FC01EA52FF4F8A
:100BC0002491FC01EE53FF4F3491FC01E255FF4F9D
:100BD000E491EE23B1F1222339F1233091F038F47E
:100BE0002130A9F0223001F584B58F7D12C0273065
:100BF00091F02830A1F02430B9F4809180008F7DED
:100C000003C0809180008F77809380000DC084B5F1
:100C10008F7784BD09C08091B0008F7703C0809129
:100C2000B0008F7D8093B000F0E0EE0FFF1FEC5519
:100C3000FF4FA591B4918FB7F894EC913E2B3C9364
:100C40008FBF0895E0914B02F0914C020190F0812A
:100C5000E02D682F8BE492E009946115710579F01D
:100C6000FB0101900020E9F73197AF01461B570BBC
:100C7000DC01ED91FC910280F381E02D099480E08C
:100C800090E008954F925F926F927F92EF92FF9261
:100C90000F931F93CF93DF93CDB7DEB7A1970FB616
:100CA000F894DEBF0FBECDBF7C01FA01CB0119A2C3
:100CB000223008F42AE08E010F5D1F4F422E512C86
:100CC000612C712CBF01A30192010E94AB0FF901AD
:100CD000CA01015011096A3014F4605D01C0695CF9
:100CE000D8016C93232B242B252B61F7B801C70166
:100CF0000E942D06A1960FB6F894DEBF0FBECDBFA1
:100D0000DF91CF911F910F91FF90EF907F906F90A7
:100D10005F904F900895CF93DF93CDB7DEB72897BC
:100D20000FB6F894DEBF0FBECDBF789484B5826055
:100D300084BD84B5816084BD85B5826085BD85B57F
:100D4000816085BD80916E00816080936E001092FD
:100D50008100809181008260809381008091810078
:100D60008160809381008091800081608093800009
:100D70008091B10084608093B1008091B000816067
:100D80008093B00080917A00846080937A00809193
:100D90007A00826080937A0080917A0081608093EB
:100DA0007A0080917A00806880937A001092C10066
:100DB00010922C0310922D0310922E0310922F03E9
:100DC0001092EA021092EB021092EC021092ED02E5
:100DD0000E9491016B017C014B015C0128EB820EAA
:100DE0002BE0921EA11CB11C0E9491016C157D0587
:100DF0008E059F0528F086169706A806B906A0F767
:100E00008BE492E090932B0380932A030E944F057A
:100E10000E9491016093EA027093EB028093EC02CE
:100E20009093ED0260E271E080912A0390912B0390
:100E30000E942D060E9491016B017C014B015C0117
:100E40003AE0830E911CA11CB11C0E9491016C150B
:100E50007D058E059F0528F086169706A806B9061B
:100E6000A0F711E01093FE021092C7011092C60184
:100E70001092280210924A02109226021093250224
:100E80001092000282E10E94DC0583E10E94DC05F1
:100E90008091B9008E7F8093B9008091B9008D7FD9
:100EA0008093B90088E48093B80085E48093BC0007
:100EB0000E944F051093270208E600934902109202
:100EC000280210924A028BE690E00E947A0580E0A8
:100ED00090E00E947A050E947F05109327020093FC
:100EE00049021092280210924A028CE190E00E947E
:100EF0007A0580E190E00E947A050E947F051093B8
:100F00002702009349021092280210924A028BE1B4
:100F100090E00E947A0588E090E00E947A050E94A5
:100F20007F051092F2011092F3011092F4011092D9
:100F3000F5011092EC011092ED011092EE01109269
:100F4000EF011092C9011092C8011092D0011092C5
:100F5000D1011092D2011092D30108EE13E00E9449
:100F60005A026091F6017091F701072E000C880B70
:100F7000990B0E948E0E2091F2013091F301409165
:100F8000F4015091F5010E94930C6B017C01609378
:100F9000F2017093F3018093F4019093F501809135
:100FA000F0019091F101BC01990F880B990B0E94FF
:100FB0008E0E2091EC013091ED014091EE015091A7
:100FC000EF010E94930C4B015C016093EC01709364
:100FD000ED018093EE019093EF010150110909F0AA
:100FE000BECF20E030E04AE754E4C701B6010E94DA
:100FF0001A0D6093F2017093F3018093F4019093C2
:10100000F50120E030E04AE754E4C501B4010E9454
:101010001A0D6093EC017093ED018093EE019093B3
:10102000EF016091E4017091E5018091E6019091FA
:10103000E701C090E001D090E101E090E201F09082
:10104000E3018090DC019090DD01A090DE01B09082
:10105000DF019B01AC010E94ED0E2B013C01A701B9
:101060009601C701B6010E94ED0E9B01AC01C301C0
:10107000B2010E94930C2B013C01A5019401C50112
:10108000B4010E94ED0E9B01AC01C301B2010E94AC
:10109000930C0E94280E9B01AC016093D8017093C1
:1010A000D9018093DA019093DB01C701B6010E9458
:1010B0001A0D0E94FF0C21EE3EE245E652E40E942A
:1010C000ED0E6093D4017093D5018093D601909377
:1010D000D7016093E8017093E9018093EA0190934E
:1010E000EB0181E090E09093CF018093CE010E94CC
:1010F0006C016093CA017093CB018093CC019093F3
:10110000CD0183E0282E312C01E010E00E949101F6
:10111000672B682B692B41F40E94910162307105A5
:101120008105910508F41CC10E9491016093FC01A6
:101130007093FD018093FE019093FF01C090F80130
:10114000D090F901E090FA01F090FB016C157D055B
:101150008E059F0540F46093F8017093F901809328
:10116000FA019093FB01C090F801D090F901E09052
:10117000FA01F090FB019B01AC012C193D094E09CD
:101180005F0969017A013AEFC316D104E104F10461
:1011900008F4E6C06093F8017093F9018093FA01B6
:1011A0009093FB0184EF91E0A0E0B0E08093F60221
:1011B0009093F702A093F802B093F9021092FA020A
:1011C0001092FB021092FC021092FD028091EE023E
:1011D0009091EF02A091F002B091F1028093F2029F
:1011E0009093F302A093F402B093F5020E94910150
:1011F0006093EE027093EF028093F0029093F102FD
:101200000E9491016093EA027093EB028093EC02DA
:101210009093ED020E9491016B017C0162E371E009
:1012200080912A0390912B030E942D062AE041E031
:1012300050E060E070E080912A0390912B030E94BF
:10124000420669E371E080912A0390912B030E948A
:101250002D062AE0B701A60180912A0390912B0365
:101260000E9442066BE371E080912A0390912B0368
:101270000E942D068091EE029091EF02A091F00263
:10128000B091F102B701A601481B590B6A0B7B0B09
:101290002AE080912A0390912B030E9442066BE37F
:1012A00071E080912A0390912B030E942D064091BA
:1012B000EE025091EF026091F0027091F102809184
:1012C000F2029091F302A091F402B091F502481B52
:1012D000590B6A0B7B0B2AE080912A0390912B0318
:1012E0000E9442066DE371E080912A0390912B03E6
:1012F0000E942D060E949101AB01BC012AE0809161
:101300002A0390912B030E944206E0902A03F0905A
:101310002B036FE371E0C7010E942D066FE271E0BD
:10132000C7010E942D060E9491014B015C016B01D7
:101330007C0192E0C90ED11CE11CF11C0E949101BC
:10134000681579058A059B0508F094C20E949101F1
:101350006093EE027093EF028093F0029093F1029B
:101360000E945A026091F6017091F701072E000C5D
:10137000880B990B0E948E0E2091F2013091F3019F
:101380004091F4015091F5010E94920C0E948C0D45
:101390006B017C017093F7016093F6016091F0019D
:1013A0007091F101072E000C880B990B0E948E0E94
:1013B0002091EC013091ED014091EE015091EF014F
:1013C0000E94920C0E948C0D7093F1016093F001C9
:1013D000B601DD0C880B990B0E948E0E20E030E0E8
:1013E00048E453E40E941A0D20E030E043E852E460
:1013F0000E941A0D9B01AC016091E8017091E90116
:101400008091EA019091EB010E94920C69837A83AA
:101410008B839C836091E4017091E5018091E601EA
:101420009091E701C090E001D090E101E090E201ED
:10143000F090E3014090DC015090DD016090DE010E
:101440007090DF019B01AC010E94ED0E4B015C012D
:10145000A7019601C701B6010E94ED0E9B01AC01E8
:10146000C501B4010E94930C4B015C01A3019201E0
:10147000C301B2010E94ED0E9B01AC01C501B40194
:101480000E94930C0E94280E9B01AC016093D8012E
:101490007093D9018093DA019093DB01C701B60103
:1014A0000E941A0D0E94FF0C21EE3EE245E652E436
:1014B0000E94ED0E4B015C016093D4017093D50145
:1014C0008093D6019093D7012BE734E14EE65FE39A
:1014D00069817A818B819C810E94ED0E69837A8378
:1014E0008B839C8329E23CE54FE85DE3C501B401B1
:1014F0000E94ED0E9B01AC0169817A818B819C81F8
:101500000E94930C4B015C016093E8017093E90128
:101510008093EA019093EB0120E030E0A901C30140
:10152000B2010E941D0E1816DCF420E030E0A90183
:10153000C701B6010E941D0E18164CF020E030E0E5
:10154000A901C701B6010E94870E87FF09C0A50146
:10155000940160E070E084E393E40E94920C1AC06E
:1015600020E030E0A901C301B2010E94870E87FF8D
:101570001AC020E030E0A901C701B6010E94870E21
:1015800087FF11C020E030E044EB53E4C501B40113
:101590000E94930C6093D0017093D1018093D2018B
:1015A0009093D30108C08092D0019092D101A09273
:1015B000D201B092D301C090D001D090D101E0907F
:1015C000D201F090D30120E030E04AEA53E4C701B1
:1015D000B6010E941D0E181654F020E030E040EADB
:1015E00051E4C701B6010E94870E87FF04C0109224
:1015F000CF011092CE0120E030E04CE852E4C70168
:10160000B6010E941D0E181674F420E030E04CED77
:1016100052E4C701B6010E94870E87FF04C03092D2
:10162000CF012092CE0120E030E040E253E4C70138
:10163000B6010E941D0E181674F420E030E048E454
:1016400053E4C701B6010E94870E87FF04C01093C0
:10165000CF010093CE0120E030E04AE753E4C70118
:10166000B6010E941D0E181684F420E030E041E916
:1016700053E4C701B6010E94870E87FF06C0A2E0AF
:10168000B0E0B093CF01A093CE01A7019601C701AE
:10169000B6010E94680E882319F066E471E01AC052
:1016A00046015701E894B7F82FEF3FEF4FE75FE7A8
:1016B000C501B4010E94680E811111C02FEF3FEFE8
:1016C0004FE75FE7C501B4010E94870E18163CF48E
:1016D0006AE471E08BE492E00E942D0679C02FEF5E
:1016E0003FEF4FE75FE4C701B6010E941D0E1816D9
:1016F0001CF46EE471E0EECF2FEF3FEF4FE75FECAD
:10170000C701B6010E94870E87FDF3CF20E030E0CD
:10171000A901C701B6010E94870E87FF07C08DE2AD
:101720000E942206F7FAF094F7F8F0942AE037EDD9
:1017300043EA5BE3C701B6010E94930C4B015C01D5
:101740000E94930D6B017C010E948C0E9B01AC01E9
:10175000C501B4010E94920C4B015C012AE0B70163
:10176000A6018BE492E00E9442068EE20E942206CD
:1017700020E030E040E251E4C501B4010E94ED0EEA
:101780006B017C010E94930D4B01A12CB12C2AE02E
:10179000B501A4018BE492E00E944206C501B401A8
:1017A0000E948C0E9B01AC01C701B6010E94920CF5
:1017B00020E030E040E251E40E94ED0E0E94930DE3
:1017C000AB0160E070E02AE08BE492E00E94420608
:1017D0006DE371E08BE492E00E942D064091CE0112
:1017E0005091CF01052E000C660B770B77FF12C0CE
:1017F0008DE24D835E836F8378870E9422064D8140
:101800005E816F81788570956095509541955F4FA9
:101810006F4F7F4F2AE08BE492E00E9442066FE216
:1018200071E08BE492E00E942D060E946C01C09052
:10183000CA01D090CB01E090CC01F090CD016C19A1
:101840007D098E099F090E948C0E20E030E44CE94E
:1018500055E40E94870E87FDE8CF0E946C016093DB
:10186000CA017093CB018093CC019093CD010E946B
:1018700062014CCCC616D706E806F90608F05ECD24
:1018800065CDEBE4F2E01382128288EE93E0A0E0F3
:10189000B0E084839583A683B78324E031E031836D
:1018A000208325EC30E03587248724EC30E037872F
:1018B000268720EC30E0318B208B21EC30E0338B1D
:1018C000228B22EC30E0358B248B26EC30E0378BFA
:1018D000268B118E128E138E148EE8EEF2E0168295
:1018E0001782108611861286138614861586168630
:1018F0001786108A118A128A138A148A158AE0E3DD
:10190000F3E01382128284839583A683B78384E1F4
:1019100091E0918380830895EE0FFF1F0590F4916D
:10192000E02D09945058BB27AA270E94AA0C0C94BA
:10193000710F0E94630F38F00E946A0F20F039F493
:101940009F3F19F426F40C94600F0EF4E095E7FB2A
:101950000C945A0FE92F0E94820F58F3BA176207AE
:1019600073078407950720F079F4A6F50C94A40F6B
:101970000EF4E0950B2EBA2FA02D0B01B9019001AA
:101980000C01CA01A0011124FF27591B99F0593FEE
:1019900050F4503E68F11A16F040A22F232F342F36
:1019A0004427585FF3CF469537952795A795F04084
:1019B0005395C9F77EF41F16BA0B620B730B840B99
:1019C000BAF09150A1F0FF0FBB1F661F771F881F51
:1019D000C2F70EC0BA0F621F731F841F48F48795A9
:1019E00077956795B795F7959E3F08F0B0CF93959B
:1019F000880F08F09927EE0F9795879508959F9384
:101A00009F77EEE389379E0728F4E8E6F0E00E942E
:101A1000090E0CC00E94C20D9058A2EA2AED3FE0C8
:101A200049EC5FE30E94AA0C0E94710F0F9007FC23
:101A3000905808950E942E0D0C94710F0E946A0F09
:101A400058F00E94630F40F029F45F3F29F00C9496
:101A50005A0F51110C94A50F0C94600F0E94820F25
:101A600068F39923B1F3552391F3951B550BBB27CD
:101A7000AA2762177307840738F09F5F5F4F220F12
:101A8000331F441FAA1FA9F335D00E2E3AF0E0E809
:101A900032D091505040E695001CCAF72BD0FE2F53
:101AA00029D0660F771F881FBB1F261737074807E7
:101AB000AB07B0E809F0BB0B802DBF01FF2793589F
:101AC0005F4F3AF09E3F510578F00C945A0F0C94FA
:101AD000A50F5F3FE4F3983ED4F38695779567951D
:101AE000B795F7959F5FC9F7880F911D96958795D4
:101AF00097F90895E1E0660F771F881FBB1F6217F3
:101B000073078407BA0720F0621B730B840BBA0BB0
:101B1000EE1F88F7E09508950E94930D6894B11127
:101B20000C94A50F08950E948A0F88F09F5798F093
:101B3000B92F9927B751B0F0E1F0660F771F881FD2
:101B4000991F1AF0BA95C9F714C0B13091F00E94EC
:101B5000A40FB1E008950C94A40F672F782F882765
:101B6000B85F39F0B93FCCF3869577956795B39513
:101B7000D9F73EF490958095709561957F4F8F4F82
:101B80009F4F0895DF93CF931F930F938B01EC0129
:101B9000ECE7F0E00E94E20D0E94710F9801AE01A7
:101BA0008B01EC0160E070E080E89FE30E94920C02
:101BB0000E94280E9801AE010F911F91CF91DF91E5
:101BC0000C94000FDF93CF931F930F93FF92EF922C
:101BD000DF927B018C01689406C0DA2EEF010E942F
:101BE000000FFE01E894A5912591359145915591FD
:101BF000A6F3EF010E94AA0CFE019701A801DA9456
:101C000069F7DF90EF90FF900F911F91CF91DF91D7
:101C100008959F938F937F936F93FF93EF939B010F
:101C2000AC010E94ED0EEF91FF910E94E20D2F9109
:101C30003F914F915F910C94ED0E0E94C90E08F4F4
:101C40008FEF089519F416F40C94600F0C946D0E38
:101C50000E948A0FB8F39923C9F3B6F39F57550B27
:101C600087FF0E947B0E0024A0E640EA9001805886
:101C70005695979528F4805C660F771F881F20F093
:101C800026173707480730F4621B730B840B202993
:101C900031294A2BA69517940794202531254A27E8
:101CA00058F7660F771F881F20F026173707480759
:101CB00030F4620B730B840B200D311D411DA09578
:101CC00081F7B901842F9158880F969587950895CB
:101CD0000E94C90E880B990B08959F3F31F09150D7
:101CE00020F4879577956795B795880F911D969500
:101CF000879597F9089591505040660F771F881F78
:101D0000D2F7089581E090E0F8940C94CD0F0E94F2
:101D1000C90E08F481E00895E89409C097FB3EF4E9
:101D200090958095709561957F4F8F4F9F4F992328
:101D3000A9F0F92F96E9BB279395F69587957795A6
:101D40006795B795F111F8CFFAF4BB0F11F460FF66
:101D50001BC06F5F7F4F8F4F9F4F16C0882311F0BE
:101D600096E911C0772321F09EE8872F762F05C0D2
:101D7000662371F096E8862F70E060E02AF09A956D
:101D8000660F771F881FDAF7880F9695879597F962
:101D90000895990F0008550FAA0BE0E8FEEF1616FC
:101DA0001706E807F907C0F012161306E407F5074F
:101DB00098F0621B730B840B950B39F40A2661F0C3
:101DC000232B242B252B21F408950A2609F4A14066
:101DD000A6958FEF811D811D08950E94000F0C9420
:101DE000710F0E94630F38F00E946A0F20F0952354
:101DF00011F00C945A0F0C94600F11240C94A50F41
:101E00000E94820F70F3959FC1F3950F50E0551F0C
:101E1000629FF001729FBB27F00DB11D639FAA273F
:101E2000F00DB11DAA1F649F6627B00DA11D661F8E
:101E3000829F2227B00DA11D621F739FB00DA11DAF
:101E4000621F839FA00D611D221F749F3327A00D69
:101E5000611D231F849F600D211D822F762F6A2F05
:101E600011249F5750409AF0F1F088234AF0EE0F6A
:101E7000FF1FBB1F661F771F881F91505040A9F797
:101E80009E3F510580F00C945A0F0C94A50F5F3FB4
:101E9000E4F3983ED4F3869577956795B795F795D3
:101EA000E7959F5FC1F7FE2B880F911D969587954B
:101EB00097F9089597F99F6780E870E060E00895CA
:101EC0009FEF80EC089500240A9416161706180652
:101ED0000906089500240A9412161306140605062E
:101EE0000895092E0394000C11F4882352F0BB0FBF
:101EF00040F4BF2B11F460FF04C06F5F7F4F8F4F22
:101F00009F4F089557FD9058440F551F59F05F3F5C
:101F100071F04795880F97FB991F61F09F3F79F00B
:101F200087950895121613061406551FF2CF46958D
:101F3000F1DF08C0161617061806991FF1CF86950F
:101F40007105610508940895E894BB2766277727F3
:101F5000CB0197F90895A1E21A2EAA1BBB1BFD0124
:101F60000DC0AA1FBB1FEE1FFF1FA217B307E40778
:101F7000F50720F0A21BB30BE40BF50B661F771FD0
:101F8000881F991F1A9469F76095709580959095B0
:0E1F90009B01AC01BD01CF010895F894FFCF75
:101F9E0000000000F9002405C200A000B4004001BA
:101FAE00000000002B02FB01F301DF01D001CF0185
:101FBE00564D4450565F317C315F564D4450560D50
:101FCE000A00564D4450455F003A323A007C005F9D
:101FDE00564D445045006E616E00696E66006F7618
:021FEE0066008B
:00000001FF
