:100000000C9485000C94AD000C94AD000C94AD00E4
:100010000C94AD000C94AD000C94AD000C94AD00AC
:100020000C94AD000C94AD000C94AD000C94AD009C
:100030000C94AD000C94AD000C94AD000C94AD008C
:100040000C941F040C94AD000C9432030C94150214
:100050000C94AD000C94AD000C94AD000C94AD006C
:100060000C9469040C94AD00036EDB363D9A9999AB
:10007000993DABAAAA2A3E000000803F072C7AA532
:10008000BA6CC590DA3B9365FC8BBC53F810FD3C11
:100090005692834DBD879D3AB63DCBC9BF5BBE73BB
:1000A000DA0FC93F05A84CCDB2D44EB93836A902F3
:1000B0000C50B9918688083CA6AAAA2ABE00000066
:1000C000803F00000000250028002B0004040404E9
:1000D00004040404020202020202030303030303F2
:1000E00001020408102040800102040810200102CF
:1000F00004081020000000080002010000030407AB
:1001000000000000000000008F0611241FBECFEF8A
:10011000D8E0DEBFCDBF11E0A0E0B1E0EAE0FFE152
:1001200002C005900D92A235B107D9F723E0A2E5F0
:10013000B1E001C01D92AA33B207E1F710E0C5E8B3
:10014000D0E004C02197FE010E94FB0BC438D10708
:10015000C9F70E94DA060C94830F0C940000EFEAB2
:10016000F1E0A089B18982E08C93A089B1891C92C9
:10017000A485B5851C92A685B78580E18C93108EE9
:10018000A489B58986E08C93A289B3898C9180611A
:100190008C93A289B3898C9188608C93A289B3894E
:1001A0008C9180688C930288F389E02D80818F7D0B
:1001B0008083089590E0FC01EC50FF4F2491FC01F6
:1001C000E052FF4F3491FC01E453FF4FE491EE23E2
:1001D000B1F1222339F1233091F038F42130A9F024
:1001E000223001F584B58F7D12C0273091F0283080
:1001F000A1F02430B9F4809180008F7D03C08091FC
:1002000080008F77809380000DC084B58F7784BD88
:1002100009C08091B0008F7703C08091B0008F7DBE
:100220008093B000F0E0EE0FFF1FEE53FF4FA5915B
:10023000B4918FB7F894EC913E2B3C938FBF089507
:10024000CF92DF92EF92FF920F931F93CF93DF93A2
:100250006C017A018B01C0E0D0E0CE15DF0589F09A
:10026000D8016D918D01D601ED91FC910190F08145
:10027000E02DC6010995892B11F47E0102C021965B
:10028000ECCFC701DF91CF911F910F91FF90EF90BD
:10029000DF90CF9008958FEA91E00E945D0221E007
:1002A000892B09F420E0822F08956115710579F0FA
:1002B000FB0101900020E9F73197AF01461B570B76
:1002C000DC01ED91FC910280F381E02D099480E046
:1002D00090E008954F925F926F927F92EF92FF921B
:1002E0000F931F93CF93DF93CDB7DEB7A1970FB6D0
:1002F000F894DEBF0FBECDBF7C01FA01CB0119A27D
:10030000223008F42AE08E010F5D1F4F422E512C3F
:10031000612C712CBF01A30192010E94610FF901B0
:10032000CA01015011096A3014F4605D01C0695CB2
:10033000D8016C93232B242B252B61F7B801C7011F
:100340000E945501A1960FB6F894DEBF0FBECDBF37
:10035000DF91CF911F910F91FF90EF907F906F9061
:100360005F904F900895682F8CE492E00C94010305
:100370002091AE019091AD01213208F04AC08091E8
:100380008A018111FCCF32E030938A0131E0309351
:1003900089013FEF309388011092870120938601F5
:1003A000ADE8B1E046E651E0FA013E2F341B3217CA
:1003B00018F43D913193F9CF1092650120916501B8
:1003C000990F922B9093650190916401913061F4A3
:1003D00010926401909165019093BB009091BC00D4
:1003E00093FDF8CF95EC01C095EE9093BC009091F1
:1003F0008A019230E1F3909188019F3F79F08091DA
:100400008801803241F080918801803331F084E0AE
:1004100005C081E003C082E001C083E010928C013E
:100420001092AE0110928B0108951F920F920FB699
:100430000F9211242F933F934F935F936F937F936A
:100440008F939F93AF93BF93EF93FF938FEA91E0C6
:100450000E946403FF91EF91BF91AF919F918F91A3
:100460007F916F915F914F913F912F910F900FBEB0
:100470000F901F901895FC01918D828D981761F057
:10048000828DDF01A80FB11D5D968C91928D9F5FCB
:100490009F73928F90E008958FEF9FEF0895FC0176
:1004A000918D828D981731F0828DE80FF11D858D29
:1004B00090E008958FEF9FEF0895FC01918D228DBC
:1004C000892F90E0805C9F4F821B91098F73992741
:1004D000089580E090E0892B29F00E944B01811162
:1004E0000C940000089585ED8093BC008091BC00C1
:1004F00084FDFCCF10928A01089540910C03262FB1
:1005000030E0240F311D21323105DCF420918A01C5
:100510002430C9F4FC0180E090E0861758F4309153
:100520000C032191DC01A651BD4FA30FB11D2C93EB
:100530000196F3CF80910C03680F60930C0380E069
:10054000089581E0089582E008950895E0915301AF
:1005500080915201E81730F4F0E0E653FD4F8081BE
:1005600090E008958FEF9FEF08959091530180914F
:100570005201981750F4E92FF0E0E653FD4F208127
:1005800030E09F5F9093530102C02FEF3FEFC9010E
:1005900008958091520190E020915301821B9109AE
:1005A0000895CF92DF92EF92FF920F931F93CF9314
:1005B000DF937C01262F972F8A0180918B0188235E
:1005C00091F0C62FD72F6E01C40ED51ECC15DD05B8
:1005D00071F06991D701ED91FC910190F081E02DCE
:1005E000C7010995F3CF642F822F0E947D02C801B5
:1005F000DF91CF911F910F91FF90EF90DF90CF90FF
:100600000895CF93DF931F92CDB7DEB76983209112
:100610008B012223D1F02091AE01203240F021E065
:1006200030E0FC013383228380E090E015C08091AC
:100630008C01E82FF0E0E357FE4F998190838F5FA4
:1006400080938C018093AE0105C061E0CE010196DC
:100650000E947D0281E090E00F90DF91CF9108959C
:100660000E94380E1F920F920FB60F9211242F93F3
:100670008F939F93EF93FF93E091BF01F091C0019F
:100680008081E091C501F091C60182FD12C0908188
:100690008091C8018F5F8F732091C901821751F03B
:1006A000E091C801F0E0E155FE4F958F8093C801BD
:1006B00001C08081FF91EF919F918F912F910F90B9
:1006C0000FBE0F901F901895FC01848DDF01A80FBD
:1006D000B11DA35ABF4F2C91848D90E001968F736A
:1006E0009927848FA689B7892C93A089B1898C9189
:1006F00080648C93938D848D981306C00288F3894F
:10070000E02D80818F7D80830895EF92FF920F937B
:100710001F93CF93DF93EC0181E0888F9B8D8C8DAD
:10072000981305C0E889F989808185FD24C0F62EDB
:100730000B8D10E00F5F1F4F0F731127E02E8C8D74
:10074000E8120CC00FB607FCFACFE889F98980815E
:1007500085FFF5CFCE010E946403F1CF8B8DFE01A2
:10076000E80FF11DE35AFF4FF0820B8FEA89FB89F6
:100770008081806207C0EE89FF896083E889F989FA
:1007800080818064808381E090E0DF91CF911F9130
:100790000F91FF90EF900895CF93DF93EC01888D38
:1007A0008823C9F0EA89FB89808185FD05C0A88975
:1007B000B9898C9186FD0FC00FB607FCF5CF8081FB
:1007C00085FFF2CFA889B9898C9185FFEDCFCE0145
:1007D0000E946403E7CFDF91CF9108953FB7F8946B
:1007E0008091360390913703A0913803B09139037B
:1007F00026B5A89B05C02F3F19F00196A11DB11D7C
:100800003FBFBA2FA92F982F8827820F911DA11DB6
:10081000B11DBC01CD0142E0660F771F881F991FF3
:100820004A95D1F708952FB7F894609132037091EB
:10083000330380913403909135032FBF08951F92A5
:100840000F920FB60F9211242F933F938F939F9384
:10085000AF93BF938091320390913303A0913403FF
:10086000B09135033091310323E0230F2D3720F46D
:100870000196A11DB11D05C026E8230F0296A11DFA
:10088000B11D209331038093320390933303A093DF
:100890003403B09335038091360390913703A091D0
:1008A0003803B09139030196A11DB11D8093360321
:1008B00090933703A0933803B0933903BF91AF915E
:1008C0009F918F913F912F910F900FBE0F901F908E
:1008D00018951F920F920FB60F9211242F933F93EA
:1008E0004F935F936F937F938F939F93AF93BF9338
:1008F000EF93FF938091B900887F803609F49CC004
:1009000068F5883209F45BC090F4803109F454C072
:1009100038F4882309F4F6C0883009F44DC0F6C0D5
:10092000883109F44CC0803209F45DC0EFC08034D6
:1009300009F468C048F4803309F455C0883309F0DD
:10094000E5C080938801D8C0803509F44FC0883550
:1009500009F45DC0883409F0D9C0D6C0883909F4DB
:10096000C7C0A8F4883709F467C038F4883609F49A
:1009700063C0803709F460C0C9C0883809F4B8C0C2
:10098000803909F45FC0803809F0C0C05BC0803B8B
:1009900009F486C038F4803A09F466C0883A09F44C
:1009A0007FC0B4C0803C09F4A7C0883C09F4A4C04F
:1009B000883B09F48AC0AAC08091650110C090915B
:1009C000870180918601981770F5E091870181E099
:1009D0008E0F80938701F0E0EA59FE4F808180936B
:1009E000BB0085EC86C0809388018EC0E0918701B2
:1009F00081E08E0F809387018091BB00F0E0EA597F
:100A0000FE4F808390918701809186016EC0E091B6
:100A1000870181E08E0F809387018091BB00F0E019
:100A2000EA59FE4F80838091890181116DC081E078
:100A30008093640184EA61C083E080938A0110920C
:100A40003003CFCF80913003803208F051C0E09165
:100A5000300381E08E0F809330038091BB00F0E083
:100A6000E05FFC4F8083BDCF85EC8093BC0010928B
:100A70008A0180913003803230F4E0913003F0E05D
:100A8000E05FFC4F10826091300370E0E0910E0354
:100A9000F0910F0380E193E009951092300336C086
:100AA00084E080938A0110920D0310920C03E09170
:100AB0000A03F0910B03099580910C03811105C085
:100AC00081E080930C031092EA02E0910D0381E033
:100AD0008E0F80930D03F0E0E651FD4F80818093EF
:100AE000BB0090910D0380910C03981708F479CF07
:100AF00085E88093BC000AC085EC8093BC0010920E
:100B00008A0104C0109288010E947302FF91EF9144
:100B1000BF91AF919F918F917F916F915F914F9115
:100B20003F912F910F900FBE0F901F901895CF936C
:100B300081E080938B0188E68093AD0110928C0157
:100B40001092AE018BE390E00E94B3010E94B801C5
:100B500080918A018111FCCF81E080938A0180938A
:100B600089019FEF90938801109287019DE09093F7
:100B700086018093650180916501806D8093650198
:100B800080916401813061F410926401809165016B
:100B90008093BB008091BC0083FDF8CF85EC01C041
:100BA00085EE8093BC0080918A018130E1F38091D1
:100BB00087018E3018F48091870101C08EE0A6E68F
:100BC000B1E02AEC32E0F9019E2F921B981718F43D
:100BD0009D919193F9CF10925301809352018E30E1
:100BE000F0F38CE492E00E94B502C82F8CE492E00E
:100BF0000E94B50260E070E07C2F862B972BBC0131
:100C0000990F880B990B0E94440E60935C017093BE
:100C10005D0180935E0190935F018CE492E00E94FD
:100C2000B502C82F8CE492E00E94B50260E070E04B
:100C30007C2F862B972BBC01990F880B990B0E9458
:100C4000440E609358017093590180935A01909318
:100C50005B018CE492E00E94B502C82F8CE492E024
:100C60000E94B50260E070E07C2F862B972BBC01C0
:100C7000990F880B990B0E94440E60935401709356
:100C8000550180935601909357018CE492E00E94A5
:100C9000B502C82F8CE492E00E94B50220E030E05B
:100CA0003C2F822B932B9093C9028093C8028CE433
:100CB00092E00E94B502C82F8CE492E00E94B50237
:100CC00020E030E03C2F822B932B909363018093A4
:100CD00062018CE492E00E94B502C82F8CE492E09D
:100CE0000E94B50220E030E03C2F822B932B9093A2
:100CF000C7028093C6028CE492E00E94B502C82F1E
:100D00008CE492E00E94B50220E030E03C2F822B80
:100D1000932B9093610180936001CF910895EFEA46
:100D2000F1E01382128288EE93E0A0E0B0E08483C9
:100D30009583A683B78324E031E03183208325ECBB
:100D400030E03587248724EC30E03787268720EC95
:100D500030E0318B208B21EC30E0338B228B22EC86
:100D600030E0358B248B26EC30E0378B268B118ED0
:100D7000128E138E148EEEE7F2E016821782108622
:100D80001186128613861486158616861786108A93
:100D9000118A128A138A148A158AECE4F2E013820B
:100DA000128284839583A683B78384E191E0918343
:100DB00080830895CF93DF93CDB7DEB72C970FB61E
:100DC000F894DEBF0FBECDBF789484B5826084BD39
:100DD00084B5816084BD85B5826085BD85B581603F
:100DE00085BD80916E00816080936E0010928100BD
:100DF0008091810082608093810080918100816078
:100E00008093810080918000816080938000809138
:100E1000B10084608093B1008091B00081608093C4
:100E2000B00080917A00846080937A0080917A008B
:100E3000826080937A0080917A00816080937A004A
:100E400080917A00806880937A001092C10010929D
:100E5000C2021092C3021092C4021092C5021092F4
:100E600080021092810210928202109283020E94EC
:100E700013046B017C014B015C0128EB820E2BE01B
:100E8000921EA11CB11C0E9413046C157D058E05D9
:100E90009F0528F086169706A806B906A0F78FEAE0
:100EA00091E09093C1028093C0020E94AF000E9423
:100EB0001304609380027093810280938202909366
:100EC000830260E271E08091C0029091C1020E94B1
:100ED00055010E9413046B017C014B015C013AE057
:100EE000830E911CA11CB11C0E9413046C157D057E
:100EF0008E059F0528F086169706A806B906A0F766
:100F000011E010939402109253011092520110922A
:100F10008C011092AE0110928A01109389011092F7
:100F2000640182E10E94DA0083E10E94DA0080918C
:100F3000B9008E7F8093B9008091B9008D7F809336
:100F4000B90088E48093B80085E48093BC000E94D7
:100F5000AF0010938B0188E68093AD0110928C0155
:100F60001092AE018BE690E00E94B30180E090E029
:100F70000E94B3010E94B80110938B0110928C0162
:100F80001092AE018CE190E00E94B30180E190E00C
:100F90000E94B3010E94B80110938B0110928C0142
:100FA0001092AE018BE190E00E94B30188E090E0E6
:100FB0000E94B3010E94B801109272021092730253
:100FC000109274021092750210926E0210926F02CB
:100FD00010927002109271021092590210925802EF
:100FE00008EE13E00E949705609162017091630121
:100FF000072E000C880B990B0E94440E2091720260
:101000003091730240917402509175020E94020C5B
:101010006B017C016093720270937302809374027F
:10102000909375028091600190916101BC01990FCC
:10103000880B990B0E94440E20916E0230916F0232
:1010400040917002509171020E94020C4B015C01B0
:1010500060936E0270936F0280937002909371029E
:101060000150110909F0BECF20E030E04AE754E416
:10107000C701B6010E94890C6093720270937302DB
:10108000809374029093750220E030E04AE754E4C4
:10109000C501B4010E94890C60936E0270936F02C7
:1010A000809370029093710260915C0170915D0178
:1010B00080915E0190915F01C0905801D0905901DC
:1010C000E0905A01F0905B0180905401909055019E
:1010D000A0905601B09057019B01AC010E94A30E55
:1010E0002B013C01A7019601C701B6010E94A30E86
:1010F0009B01AC01C301B2010E94020C2B013C0117
:10110000A5019401C501B4010E94A30E9B01AC018D
:10111000C301B2010E94020C0E949F0D9B01AC0111
:1011200060936602709367028093680290936902ED
:10113000C701B6010E94890C0E946E0C21EE3EE2AE
:1011400045E652E40E94A30E60936202709363022C
:10115000809364029093650260936A0270936B02BD
:1011600080936C0290936D020E94EE0360935A028A
:1011700070935B0280935C0290935D020E94130463
:10118000672B682B692B41F40E94130462307105B0
:101190008105910508F41CC10E94130460937A0232
:1011A00070937B0280937C0290937D02C0907602C4
:1011B000D0907702E0907802F09079026C157D056E
:1011C0008E059F0540F460937602709377028093BA
:1011D000780290937902C0907602D0907702E090E6
:1011E0007802F09079029B01AC012C193D094E095F
:1011F0005F0969017A013AEFC316D104E104F104F1
:1012000008F4E6C0609376027093770280937802C8
:101210009093790284EF91E0A0E0B0E080938C029B
:1012200090938D02A0938E02B0938F021092900241
:101230001092910210929202109293028091840275
:1012400090918502A0918602B091870280938802D6
:1012500090938902A0938A02B0938B020E94130498
:101260006093840270938502809386029093870234
:101270000E94130460938002709381028093820223
:10128000909383020E9413046B017C0162E371E07E
:101290008091C0029091C1020E9455012AE041E074
:1012A00050E060E070E08091C0029091C1020E9425
:1012B0006A0169E371E08091C0029091C1020E94CD
:1012C00055012AE0B701A6018091C0029091C102A8
:1012D0000E946A016BE371E08091C0029091C102AB
:1012E0000E9455018091840290918502A09186020E
:1012F000B0918702B701A601481B590B6A0B7B0B03
:101300002AE08091C0029091C1020E946A016BE3C1
:1013100071E08091C0029091C1020E9455014091FC
:1013200084025091850260918602709187028091BB
:10133000880290918902A0918A02B0918B02481B89
:10134000590B6A0B7B0B2AE08091C0029091C1027D
:101350000E946A016DE371E08091C0029091C10228
:101360000E9455010E941304AB01BC012AE0809148
:10137000C0029091C1020E946A010091C0021091C6
:10138000C1026FE371E0C8010E9455016FE271E094
:10139000C8010E9455010E9413046B017C014B019E
:1013A0005C0192E0890E911CA11CB11C0E941304E7
:1013B0006C157D058E059F0508F016C20E9413046A
:1013C00060938402709385028093860290938702D3
:1013D0000E9497056091620170916301072E000CD5
:1013E000880B990B0E94440E209172023091730277
:1013F00040917402509175020E94010C0E94FB0CF6
:101400006B017C01709363016093620160916001E4
:1014100070916101072E000C880B990B0E94440EFD
:1014200020916E0230916F024091700250917102D2
:101430000E94010C0E94FB0C6D837E838F83988732
:10144000AD81BE81B0936101A0936001B601DD0C56
:10145000880B990B0E94440E20E030E048E453E4EE
:101460000E94890C20E030E043E852E40E94890C9D
:101470009B01AC0160916A0270916B0280916C02D9
:1014800090916D020E94010C69877A878B879C87F7
:1014900060915C0170915D0180915E0190915F01AE
:1014A000C0905801D0905901E0905A01F0905B0132
:1014B0008090540190905501A0905601B090570132
:1014C0009B01AC010E94A30E2B013C01A7019601D8
:1014D000C701B6010E94A30E9B01AC01C301B2017A
:1014E0000E94020C2B013C01A5019401C501B4012D
:1014F0000E94A30E9B01AC01C301B2010E94020C29
:101500000E949F0D9B01AC0160936602709367027D
:101510008093680290936902C701B6010E94890C0A
:101520000E946E0C21EE3EE245E652E40E94A30EBC
:101530006B017C016093620270936302809364028A
:101540009093650220915E0230915F0240916002AB
:101550005091610229833A834B835C834D815E8184
:10156000BA01550F880B990B0E94440E20E030E021
:1015700048E453E40E94890C20E030E043E852E460
:101580000E94890C25E33AEF4EE85CE30E94A30E2B
:101590000E94910D2B013C019B01AC0169817A8174
:1015A0008B819C810E94A30E9B01AC0169857A8589
:1015B0008B859C850E94010C4B015C01A30192016B
:1015C0000E94A30E9B01AC0169817A818B819C8171
:1015D0000E94020C60935E0270935F02809360022F
:1015E0009093610225E035EC4FE75FE3C501B4015C
:1015F0000E94A30E4B015C012AEF3DEE4BE65AE33D
:10160000C701B6010E94A30E9B01AC01C501B40144
:101610000E94020C6B017C014B015C0160936A0229
:1016200070936B0280936C0290936D029B01AC01EE
:101630000E94DF0D882319F066E471E01AC02601CC
:101640003701E89477F82FEF3FEF4FE75FE7C301EB
:10165000B2010E94DF0D811111C02FEF3FEF4FE764
:101660005FE7C301B2010E943D0E18163CF46AE424
:1016700071E08FEA91E00E9455018BC02FEF3FEFA0
:101680004FE75FE4C701B6010E948C0D18161CF4E9
:101690006EE471E0EECF2FEF3FEF4FE75FECC70155
:1016A000B6010E943D0E87FDF3CF20E030E0A90196
:1016B000C701B6010E943D0E87FF11C0E091AF0146
:1016C000F091B0010190F081E02D6DE28FEA91E0A0
:1016D000099546015701B7FAB094B7F8B0942AE0DB
:1016E00037ED43EA5BE3C501B4010E94020C4B01F4
:1016F0005C010E94020D6B017C010E94420E9B0165
:10170000AC01C501B4010E94010C4B015C012AE04F
:10171000B701A6018FEA91E00E946A01E091AF0152
:10172000F091B0010190F081E02D6EE28FEA91E03E
:10173000099520E030E040E251E4C501B4010E9487
:10174000A30E4B015C010E94020D6B01E12CF12CF8
:101750002AE0B701A6018FEA91E00E946A01C70161
:10176000B6010E94420E9B01AC01C501B4010E946A
:10177000010C20E030E040E251E40E94A30E0E9400
:10178000020DAB0160E070E02AE08FEA91E00E9478
:101790006A016FE271E08FEA91E00E9455010E94B8
:1017A000EE03C0905A02D0905B02E0905C02F09091
:1017B0005D026C197D098E099F090E94420E2AE084
:1017C00037ED43EA5BE30E943D0E87FDE8CF0E94C0
:1017D000EE0360935A0270935B0280935C029093D5
:1017E0005D020E946902CACC86169706A806B90651
:1017F00008F0DCCDE3CDEE0FFF1F0590F491E02D56
:1018000009945058BB27AA270E94190C0C94270F43
:101810000E94190F38F00E94200F20F039F49F3FEA
:1018200019F426F40C94160F0EF4E095E7FB0C94D3
:10183000100FE92F0E94380F58F3BA176207730789
:101840008407950720F079F4A6F50C945A0F0EF44E
:10185000E0950B2EBA2FA02D0B01B90190010C01C0
:10186000CA01A0011124FF27591B99F0593F50F4D8
:10187000503E68F11A16F040A22F232F342F442730
:10188000585FF3CF469537952795A795F040539528
:10189000C9F77EF41F16BA0B620B730B840BBAF0F8
:1018A0009150A1F0FF0FBB1F661F771F881FC2F763
:1018B0000EC0BA0F621F731F841F48F48795779577
:1018C0006795B795F7959E3F08F0B0CF9395880F31
:1018D00008F09927EE0F9795879508959F939F7726
:1018E000EEE389379E0728F4E8E6F0E00E94780DE1
:1018F0000CC00E94310D9058A2EA2AED3FE049EC5D
:101900005FE30E94190C0E94270F0F9007FC90586C
:1019100008950E949D0C0C94270F0E94200F58F0F0
:101920000E94190F40F029F45F3F29F00C94100F2A
:1019300051110C945B0F0C94160F0E94380F68F332
:101940009923B1F3552391F3951B550BBB27AA2778
:1019500062177307840738F09F5F5F4F220F331FB2
:10196000441FAA1FA9F335D00E2E3AF0E0E832D07A
:1019700091505040E695001CCAF72BD0FE2F29D07D
:10198000660F771F881FBB1F261737074807AB074F
:10199000B0E809F0BB0B802DBF01FF2793585F4FC4
:1019A0003AF09E3F510578F00C94100F0C945B0FA9
:1019B0005F3FE4F3983ED4F3869577956795B795A6
:1019C000F7959F5FC9F7880F911D9695879597F9B1
:1019D0000895E1E0660F771F881FBB1F621773072A
:1019E0008407BA0720F0621B730B840BBA0BEE1F3F
:1019F00088F7E09508950E94020D6894B1110C9447
:101A00005B0F08950E94400F88F09F5798F0B92F00
:101A10009927B751B0F0E1F0660F771F881F991F23
:101A20001AF0BA95C9F714C0B13091F00E945A0F5C
:101A3000B1E008950C945A0F672F782F8827B85F6C
:101A400039F0B93FCCF3869577956795B395D9F77B
:101A50003EF490958095709561957F4F8F4F9F4F85
:101A60000895DF93CF931F930F938B01EC01ECE765
:101A7000F0E00E94510D0E94270F9801AE018B01EA
:101A8000EC0160E070E080E89FE30E94010C0E949E
:101A90009F0D9801AE010F911F91CF91DF910C9492
:101AA000B60EDF93CF931F930F93FF92EF92DF92C7
:101AB0007B018C01689406C0DA2EEF010E94B60EFD
:101AC000FE01E894A5912591359145915591A6F394
:101AD000EF010E94190CFE019701A801DA9469F741
:101AE000DF90EF90FF900F911F91CF91DF910895BC
:101AF0009F938F937F936F93FF93EF939B01AC0121
:101B00000E94A30EEF91FF910E94510D2F913F91E2
:101B10004F915F910C94A30E0E947F0E08F48FEFFB
:101B200008959F930E94FB0D0F9007FCEE5F0C94AD
:101B3000240E19F416F40C94160F0C94E40D0E9464
:101B4000400FB8F39923C9F3B6F39F57550B87FF9E
:101B50000E94F20D0024A0E640EA900180585695BC
:101B6000979528F4805C660F771F881F20F0261752
:101B70003707480730F4621B730B840B2029312987
:101B80004A2BA69517940794202531254A2758F704
:101B9000660F771F881F20F026173707480730F495
:101BA000620B730B840B200D311D411DA09581F735
:101BB000B901842F9158880F9695879508950E94B2
:101BC0007F0E880B990B08959F3F31F0915020F4C0
:101BD000879577956795B795880F911D9695879509
:101BE00097F9089591505040660F771F881FD2F7DC
:101BF00008950C94160F0E94400FD8F3E894E0E08B
:101C0000BB279F57F0F02AED3FE049EC06C0EE0FEE
:101C1000BB0F661F771F881F28F0B23A6207730751
:101C2000840728F0B25A620B730B840BE3959A95E4
:101C300072F7803830F49A95BB0F661F771F881FA4
:101C4000D2F790480C94E60DEF93E0FF07C0A2EAAC
:101C50002AED3FE049EC5FEB0E94190C0E94270F30
:101C60000F90039401FC9058E4EAF0E00C94780D96
:101C700081E090E0F8940C94830F0E947F0E08F4AA
:101C800081E00895E89409C097FB3EF49095809513
:101C9000709561957F4F8F4F9F4F9923A9F0F92F32
:101CA00096E9BB279395F695879577956795B795B0
:101CB000F111F8CFFAF4BB0F11F460FF1BC06F5F96
:101CC0007F4F8F4F9F4F16C0882311F096E911C0A8
:101CD000772321F09EE8872F762F05C0662371F0C9
:101CE00096E8862F70E060E02AF09A95660F771FDD
:101CF000881FDAF7880F9695879597F90895990FB9
:101D00000008550FAA0BE0E8FEEF16161706E807C5
:101D1000F907C0F012161306E407F50798F0621BE6
:101D2000730B840B950B39F40A2661F0232B242BBB
:101D3000252B21F408950A2609F4A140A6958FEFDA
:101D4000811D811D08950E94B60E0C94270F0E94DC
:101D5000190F38F00E94200F20F0952311F00C94F9
:101D6000100F0C94160F11240C945B0F0E94380F67
:101D700070F3959FC1F3950F50E0551F629FF001DE
:101D8000729FBB27F00DB11D639FAA27F00DB11DF7
:101D9000AA1F649F6627B00DA11D661F829F222780
:101DA000B00DA11D621F739FB00DA11D621F839F07
:101DB000A00D611D221F749F3327A00D611D231FDD
:101DC000849F600D211D822F762F6A2F11249F572B
:101DD00050409AF0F1F088234AF0EE0FFF1FBB1F2E
:101DE000661F771F881F91505040A9F79E3F5105ED
:101DF00080F00C94100F0C945B0F5F3FE4F3983E5F
:101E0000D4F3869577956795B795F795E7959F5F96
:101E1000C1F7FE2B880F911D9695879597F9089528
:101E200097F99F6780E870E060E008959FEF80EC8D
:101E3000089500240A941616170618060906089530
:101E400000240A9412161306140605060895092E96
:101E50000394000C11F4882352F0BB0F40F4BF2B05
:101E600011F460FF04C06F5F7F4F8F4F9F4F089545
:101E700057FD9058440F551F59F05F3F71F047953B
:101E8000880F97FB991F61F09F3F79F08795089520
:101E9000121613061406551FF2CF4695F1DF08C03F
:101EA000161617061806991FF1CF8695710561055C
:101EB00008940895E894BB2766277727CB0197F904
:101EC0000895A1E21A2EAA1BBB1BFD010DC0AA1F7B
:101ED000BB1FEE1FFF1FA217B307E407F50720F093
:101EE000A21BB30BE40BF50B661F771F881F991F0E
:101EF0001A9469F760957095809590959B01AC0157
:0A1F0000BD01CF010895F894FFCF52
:101F0A0000000000850320015D023B024F02CC0362
:101F1A00000000000103D102C902B502A602A5020F
:101F2A00564D4450565F317C315F564D4450560DE4
:101F3A000A00564D4450455F003A323A007C005F31
:101F4A00564D445045006E616E00696E66006F76AC
:021F5A0066001F
:00000001FF
