:100000000C9476000C949E000C949E000C949E0020
:100010000C949E000C949E000C949E000C949E00E8
:100020000C949E000C949E000C949E000C949E00D8
:100030000C949E000C949E000C949E000C949E00C8
:100040000C94AC030C949E000C947A030C9454030F
:100050000C949E000C949E000C949E000C949E00A8
:100060000C94F6030C949E00036EDB363D9A99992E
:10007000993DABAAAA2A3E000000803F072C7AA532
:10008000BA6CC590DA3B9365FC8BBC53F810FD3C11
:100090005692834DBD879D3AB63DCBC9BF5BBE73BB
:1000A000DA0FC93F00000000250028002B000404DF
:1000B0000404040404040202020202020303030310
:1000C00003030102040810204080010204081020EC
:1000D00001020408102000000008000201000003D3
:1000E00004070000000000000000950B11241FBE53
:1000F000CFEFD8E0DEBFCDBF11E0A0E0B1E0E6E495
:10010000FEE102C005900D92AE37B107D9F723E0AA
:10011000AEE7B1E001C01D92A036B207E1F710E0F2
:10012000C6E7D0E004C02197FE010E94E00BC5376E
:10013000D107C9F70E946C070C94210F0C940000A2
:10014000FC01918D828D981761F0828DDF01A80FDF
:10015000B11D5D968C91928D9F5F9F73928F90E001
:1001600008958FEF9FEF0895FC01918D828D981770
:1001700031F0828DE80FF11D858D90E008958FEFAD
:100180009FEF0895FC01918D228D892F90E0805C76
:100190009F4F821B91098F73992708958FE692E0F4
:1001A0000E94C20021E0892B09F420E0822F0895EB
:1001B000FC01848DDF01A80FB11DA35ABF4F2C9104
:1001C000848D90E001968F739927848FA689B789D3
:1001D0002C93A089B1898C9180648C93938D848DAC
:1001E000981306C00288F389E02D80818F7D80837B
:1001F0000895EF92FF920F931F93CF93DF93EC013B
:1002000081E0888F9B8D8C8D981305C0E889F989D2
:10021000808185FD24C0F62E0B8D10E00F5F1F4FEF
:100220000F731127E02E8C8DE8120CC00FB607FC5F
:10023000FACFE889F989808185FFF5CFCE010E9448
:10024000D800F1CF8B8DFE01E80FF11DE35AFF4F6F
:10025000F0820B8FEA89FB898081806207C0EE897A
:10026000FF896083E889F98980818064808381E0E7
:1002700090E0DF91CF911F910F91FF90EF90089543
:10028000CF93DF93EC01888D8823C9F0EA89FB893D
:10029000808185FD05C0A889B9898C9186FD0FC034
:1002A0000FB607FCF5CF808185FFF2CFA889B98909
:1002B0008C9185FFEDCFCE010E94D800E7CFDF9172
:1002C000CF91089580E090E0892B29F00E94CE0024
:1002D00081110C94000008953FB7F8948091EE01CD
:1002E0009091EF01A091F001B091F10126B5A89B8A
:1002F00005C02F3F19F00196A11DB11D3FBFBA2FB8
:10030000A92F982F8827820F911DA11DB11DBC0117
:10031000CD0142E0660F771F881F991F4A95D1F7DC
:1003200008952FB7F8946091EA017091EB018091E4
:10033000EC019091ED012FBF089585ED8093BC00F5
:100340008091BC0084FDFCCF10924A020895409138
:10035000C401262F30E0240F311D21323105DCF499
:1003600020914A022430C9F4FC0180E090E0861715
:1003700058F43091C4012191DC01AE55BE4FA30F5A
:10038000B11D2C930196F3CF8091C401680F609347
:10039000C40180E0089581E0089582E00895089501
:1003A000E091F3018091F201E81730F4F0E0EE57AC
:1003B000FE4F808190E008958FEF9FEF0895909118
:1003C000F3018091F201981750F4E92FF0E0EE5715
:1003D000FE4F208130E09F5F9093F30102C02FEF2A
:1003E0003FEFC90108958091F20190E02091F3015F
:1003F000821B91090895CF92DF92EF92FF920F93A3
:100400001F93CF93DF937C01262F972F8A01809132
:100410004B02882391F0C62FD72F6E01C40ED51E34
:10042000CC15DD0571F06991D701ED91FC9101903A
:10043000F081E02DC7010995F3CF642F822F0E9430
:10044000A701C801DF91CF911F910F91FF90EF900D
:10045000DF90CF900895CF93DF931F92CDB7DEB793
:10046000698320914B022223D1F020916E02203229
:1004700040F021E030E0FC013383228380E090E013
:1004800015C080914C02E82FF0E0E35BFD4F9981AD
:1004900090838F5F80934C0280936E0205C061E071
:1004A000CE0101960E94A70181E090E00F90DF91BC
:1004B000CF910895CF9381E080934B0288E680939B
:1004C0006D0210924C0210926E028BE390E00E943B
:1004D0007A050E947F0580914A028111FCCF81E05C
:1004E00080934A02809349029FEF909348021092B2
:1004F00047029DE090934602809325028091250259
:10050000806D8093250280912402813061F41092E5
:100510002402809125028093BB008091BC0083FD62
:10052000F8CF85EC01C085EE8093BC0080914A0233
:100530008130E1F3809147028E3018F480914702B8
:1005400001C08EE0A6E2B2E022E831E0F9019E2F80
:10055000921B981718F49D919193F9CF1092F30183
:100560008093F2018E30F0F384E593E00E94DF0186
:10057000C82F84E593E00E94DF0160E070E07C2FEB
:10058000862B972BBC01990F880B990B0E94E20DCB
:10059000609308027093090280930A0290930B0201
:1005A00084E593E00E94DF01C82F84E593E00E9478
:1005B000DF0160E070E07C2F862B972BBC01990F48
:1005C000880B990B0E94E20D609304027093050260
:1005D000809306029093070284E593E00E94DF0176
:1005E000C82F84E593E00E94DF0160E070E07C2F7B
:1005F000862B972BBC01990F880B990B0E94E20D5B
:1006000060930002709301028093020290930302B0
:1006100084E593E00E94DF01C82F84E593E00E9407
:10062000DF0120E030E03C2F822B932B909381015F
:100630008093800184E593E00E94DF01C82F84E568
:1006400093E00E94DF0120E030E03C2F822B932BCF
:1006500090931B0280931A0284E593E00E94DF01CD
:10066000C82F84E593E00E94DF0120E030E03C2FBA
:10067000822B932B90937F0180937E0184E593E0FE
:100680000E94DF01C82F84E593E00E94DF0120E093
:1006900030E03C2F822B932B909315028093140211
:1006A000CF9108950E94D60D1F920F920FB60F9210
:1006B00011242F933F934F935F936F937F938F9367
:1006C0009F93AF93BF93EF93FF938FE692E00E94C7
:1006D000D800FF91EF91BF91AF919F918F917F9142
:1006E0006F915F914F913F912F910F900FBE0F909F
:1006F0001F9018951F920F920FB60F9211242F93EF
:100700008F939F93EF93FF93E0917F02F09180028C
:100710008081E0918502F091860282FD12C0908175
:10072000809188028F5F8F7320918902821751F028
:10073000E0918802F0E0E159FD4F958F80938802A7
:1007400001C08081FF91EF919F918F912F910F9028
:100750000FBE0F901F9018951F920F920FB60F9219
:1007600011242F933F938F939F93AF93BF938091C7
:10077000EA019091EB01A091EC01B091ED01309173
:10078000E90123E0230F2D3720F40196A11DB11DAF
:1007900005C026E8230F0296A11DB11D2093E90193
:1007A0008093EA019093EB01A093EC01B093ED01EB
:1007B0008091EE019091EF01A091F001B091F101D3
:1007C0000196A11DB11D8093EE019093EF01A093BE
:1007D000F001B093F101BF91AF919F918F913F9143
:1007E0002F910F900FBE0F901F9018951F920F9290
:1007F0000FB60F9211242F933F934F935F936F93F4
:100800007F938F939F93AF93BF93EF93FF938091C9
:10081000B900887F803609F49CC068F5883209F4F5
:100820005BC090F4803109F454C038F4882309F493
:10083000F6C0883009F44DC0F6C0883109F44CC0C8
:10084000803209F45DC0EFC0803409F468C048F418
:10085000803309F455C0883309F0E5C0809348021D
:10086000D8C0803509F44FC0883509F45DC088349C
:1008700009F0D9C0D6C0883909F4C7C0A8F48837B0
:1008800009F467C038F4883609F463C0803709F486
:1008900060C0C9C0883809F4B8C0803909F45FC0A5
:1008A000803809F0C0C05BC0803B09F486C038F4D2
:1008B000803A09F466C0883A09F47FC0B4C0803C2D
:1008C00009F4A7C0883C09F4A4C0883B09F48AC095
:1008D000AAC08091250210C09091470280914602E3
:1008E000981770F5E091470281E08E0F80934702E0
:1008F000F0E0EA5DFD4F80818093BB0085EC86C00F
:10090000809348028EC0E091470281E08E0F809371
:1009100047028091BB00F0E0EA5DFD4F808390913B
:100920004702809146026EC0E091470281E08E0F3F
:10093000809347028091BB00F0E0EA5DFD4F808329
:100940008091490281116DC081E08093240284EA84
:1009500061C083E080934A021092E801CFCF80917A
:10096000E801803208F051C0E091E80181E08E0F8B
:100970008093E8018091BB00F0E0E853FE4F808354
:10098000BDCF85EC8093BC0010924A028091E801B3
:10099000803230F4E091E801F0E0E853FE4F10823D
:1009A0006091E80170E0E091C601F091C70188EC28
:1009B00091E009951092E80136C084E080934A02E4
:1009C0001092C5011092C401E091C201F091C301DF
:1009D00009958091C401811105C081E08093C40113
:1009E0001092A201E091C50181E08E0F8093C501B4
:1009F000F0E0EE55FE4F80818093BB009091C501E1
:100A00008091C401981708F479CF85E88093BC00E1
:100A10000AC085EC8093BC0010924A0204C0109278
:100A200048020E949D01FF91EF91BF91AF919F916C
:100A30008F917F916F915F914F913F912F910F9087
:100A40000FBE0F901F901895CF92DF92EF92FF92FA
:100A50000F931F93CF93DF936C017A018B01C0E05A
:100A6000D0E0CE15DF0589F0D8016D918D01D6015A
:100A7000ED91FC910190F081E02DC6010995892B43
:100A800011F47E0102C02196ECCFC701DF91CF9116
:100A90001F910F91FF90EF90DF90CF900895EFE6B8
:100AA000F2E0A089B18982E08C93A089B1891C927F
:100AB000A485B5851C92A685B78580E18C93108EA0
:100AC000A489B58986E08C93A289B3898C918061D1
:100AD0008C93A289B3898C9188608C93A289B38905
:100AE0008C9180688C930288F389E02D80818F7DC2
:100AF00080830895682F84E593E00C942B02209165
:100B00006E0290916D02213208F04AC080914A0233
:100B10008111FCCF32E030934A0231E03093490238
:100B20003FEF309348021092470220934602ADE413
:100B3000B2E046E252E0FA013E2F341B321718F4BD
:100B40003D913193F9CF1092250220912502990F02
:100B5000922B9093250290912402913061F410928F
:100B60002402909125029093BB009091BC0093FDCC
:100B7000F8CF95EC01C095EE9093BC0090914A029D
:100B80009230E1F3909148029F3F79F080914802C2
:100B9000803241F080914802803331F084E005C01A
:100BA00081E003C082E001C083E010924C02109209
:100BB0006E0210924B02089590E0FC01EA52FF4F42
:100BC0002491FC01EE53FF4F3491FC01E255FF4F9D
:100BD000E491EE23B1F1222339F1233091F038F47E
:100BE0002130A9F0223001F584B58F7D12C0273065
:100BF00091F02830A1F02430B9F4809180008F7DED
:100C000003C0809180008F77809380000DC084B5F1
:100C10008F7784BD09C08091B0008F7703C0809129
:100C2000B0008F7D8093B000F0E0EE0FFF1FEC5519
:100C3000FF4FA591B4918FB7F894EC913E2B3C9364
:100C40008FBF08956115710579F0FB0101900020B7
:100C5000E9F73197AF01461B570BDC01ED91FC9191
:100C60000280F381E02D099480E090E008954F9296
:100C70005F926F927F92EF92FF920F931F93CF93A9
:100C8000DF93CDB7DEB7A1970FB6F894DEBF0FBEE6
:100C9000CDBF7C01FA01CB0119A2223008F42AE071
:100CA0008E010F5D1F4F422E512C612C712CBF0104
:100CB000A30192010E94FF0EF901CA01015011091E
:100CC0006A3014F4605D01C0695CD8016C93232B19
:100CD000242B252B61F7B801C7010E942206A1969B
:100CE0000FB6F894DEBF0FBECDBFDF91CF911F913D
:100CF0000F91FF90EF907F906F905F904F900895CD
:100D00004F925F926F927F928F929F92AF92BF921B
:100D1000CF92DF92EF92FF926B017C01B42E9B0188
:100D2000AC010E94BC0D882319F062E771E027C076
:100D300026013701E89477F82FEF3FEF4FE75FE7A1
:100D4000C301B2010E94BC0D81110DC02FEF3FEF16
:100D50004FE75FE7C301B2010E94DB0D18161CF4D8
:100D600066E771E00CC02FEF3FEF4FE75FE4C7018C
:100D7000B6010E94710D181694F46AE771E08FE6CF
:100D800092E0FF90EF90DF90CF90BF90AF909F9058
:100D90008F907F906F905F904F900C9422062FEF72
:100DA0003FEF4FE75FECC701B6010E94DB0D87FD07
:100DB000E4CF20E030E0A901C701B6010E94DB0DBD
:100DC00087FF11C0E0916F02F09170020190F081F5
:100DD000E02D6DE28FE692E009954C01F7FAF09470
:100DE000F7F8F09402C0812C912CA12C60E070E007
:100DF00080E09FE3AB1441F020E030E040E251E4BA
:100E00000E946E0CA394F6CF9B01AC01C701B60102
:100E10000E94E70B2B013C010E94E70C6B017C0157
:100E20000E94E00D9B01AC01C301B2010E94E60BE0
:100E30002B013C012AE0B701A6018FE692E00E9457
:100E400037067C01E80CF91CBB2069F0E0916F02C9
:100E5000F09170020190F081E02D6EE28FE692E059
:100E60000995E80EF91EDB2CDD2031F120E030E0A1
:100E700040E251E4C301B2010E94410E2B013C014A
:100E80000E94E70C4B01A12CB12C2AE0B501A40172
:100E90008FE692E00E943706E80EF91EC501B40104
:100EA0000E94E00D9B01AC01C301B2010E94E60B60
:100EB0002B013C01DA94D8CFC701FF90EF90DF906F
:100EC000CF90BF90AF909F908F907F906F905F90EA
:100ED0004F9008950C942206789484B5826084BD66
:100EE00084B5816084BD85B5826085BD85B581602E
:100EF00085BD80916E00816080936E0010928100AC
:100F00008091810082608093810080918100816066
:100F10008093810080918000816080938000809127
:100F2000B10084608093B1008091B00081608093B3
:100F3000B00080917A00846080937A0080917A007A
:100F4000826080937A0080917A00816080937A0039
:100F500080917A00806880937A001092C10010928C
:100F600050031092510310925203109253031092A7
:100F70000E0310920F0310921003109211030E949F
:100F800091016B017C014B015C0128EB820E2BE08F
:100F9000921EA11CB11C0E9491016C157D058E054D
:100FA0009F0528F086169706A806B906A0F78FE6D3
:100FB00092E090934F0380934E030E944F050E944E
:100FC000910160930E0370930F038093100390932D
:100FD000110360E271E080914E0390914F030E94F3
:100FE0006A070E9491016B017C014B015C013AE0B0
:100FF000830E911CA11CB11C0E9491016C157D05F2
:101000008E059F0528F086169706A806B906A0F754
:10101000C1E0C09322031092F3011092F2011092EA
:101020004C0210926E0210924A02C0934902109232
:10103000240282E10E94DC0583E10E94DC058091AC
:10104000B9008E7F8093B9008091B9008D7F809325
:10105000B90088E48093B80085E48093BC000E94C6
:101060004F05C0934B02D8E6D0936D0210924C020C
:1010700010926E028BE690E00E947A0580E090E08C
:101080000E947A050E947F05C0934B02D0936D02A7
:1010900010924C0210926E028CE190E00E947A0550
:1010A00080E190E00E947A050E947F05C0934B0288
:1010B000D0936D0210924C0210926E028BE190E080
:1010C0000E947A0588E090E00E947A050E947F05E0
:1010D0001092160210921702109218021092190222
:1010E000109210021092110210921202109213022A
:1010F000C8EED3E00E945A0260911A0270911B025E
:10110000072E000C880B990B0E94E20D209116020D
:101110003091170240911802509119020E94E70B7A
:101120006B017C0160931602709317028093180282
:10113000909319028091140290911502BC01990FAD
:10114000880B990B0E94E20D209110023091110240
:1011500040911202509113020E94E70B4B015C0177
:101160006093100270931102809312029093130205
:10117000219709F0BFCF20E030E04AE754E4C701EF
:10118000B6010E946E0C6093160270931702809352
:1011900018029093190220E030E04AE754E4C501B8
:1011A000B4010E946E0C6093100270931102809340
:1011B00012029093130260910802709109028091CB
:1011C0000A0290910B02C0900402D0900502E090B8
:1011D0000602F09007028090000290900102A09019
:1011E0000202B09003029B01AC010E94410E2B0150
:1011F0003C01A7019601C701B6010E94410E9B0167
:10120000AC01C301B2010E94E70B2B013C01A50117
:101210009401C501B4010E94410E9B01AC01C301C0
:10122000B2010E94E70B0E947C0D9B01AC01609310
:10123000FC017093FD018093FE019093FF01C701B3
:10124000B6010E946E0C0E94530C21EE3EE245E670
:1012500052E40E94410E6093F8017093F90180936B
:10126000FA019093FB0160930C0270930D0280933E
:101270000E0290930F020E946C016093F401709330
:10128000F5018093F6019093F7010E949101672B7D
:10129000682B692B41F40E94910162307105810530
:1012A000910508F41CC10E94910160932002709383
:1012B00021028093220290932302C0901C02D090BE
:1012C0001D02E0901E02F0901F026C157D058E0538
:1012D0009F0540F460931C0270931D0280931E02D0
:1012E00090931F02C0901C02D0901D02E0901E023D
:1012F000F0901F029B01AC012C193D094E095F09BA
:1013000069017A013AEFC316D104E104F10408F44B
:10131000E6C060931C0270931D0280931E0290939E
:101320001F0284EF91E0A0E0B0E080931A03909355
:101330001B03A0931C03B0931D0310921E03109275
:101340001F031092200310922103809112039091A9
:101350001303A0911403B091150380931603909387
:101360001703A0931803B09319030E94910160938F
:1013700012037093130380931403909315030E9438
:10138000910160930E0370930F0380931003909369
:1013900011030E9491016B017C0162E371E0809175
:1013A0004E0390914F030E946A072AE041E050E00B
:1013B00060E070E080914E0390914F030E943706E9
:1013C00069E371E080914E0390914F030E946A0798
:1013D0002AE0B701A60180914E0390914F030E942D
:1013E00037066BE371E080914E0390914F030E94AA
:1013F0006A078091120390911303A0911403B09196
:101400001503B701A601481B590B6A0B7B0B2AE099
:1014100080914E0390914F030E9437066BE371E079
:1014200080914E0390914F030E946A0740911203EE
:10143000509113036091140370911503809116036A
:1014400090911703A0911803B0911903481B590BF1
:101450006A0B7B0B2AE080914E0390914F030E9410
:1014600037066DE371E080914E0390914F030E9427
:101470006A070E949101AB01BC012AE080914E03F2
:1014800090914F030E943706C0914E03D0914F03B5
:101490006FE371E0CE010E9422066FE271E0CE019F
:1014A0000E9422060E9491016B017C014B015C01AC
:1014B00092E0890E911CA11CB11C0E9491016C1537
:1014C0007D058E059F0508F029C10E94910160935A
:1014D00012037093130380931403909315030E94D7
:1014E0005A0260911A0270911B02072E000C880BA1
:1014F000990B0E94E20D2091160230911702409143
:101500001802509119020E94E60B0E94E00C6B0138
:101510007C0170931B0260931A0260911402709117
:101520001502072E000C880B990B0E94E20D2091EA
:1015300010023091110240911202509113020E9448
:10154000E60B0E94E00C7093150260931402B60142
:10155000DD0C880B990B0E94E20D20E030E048EC96
:1015600052E40E946E0C20E030E043E852E40E9416
:101570006E0C9B01AC0160910C0270910D02809188
:101580000E0290910F020E94E60B60930C02709382
:101590000D0280930E0290930F02609108027091E9
:1015A000090280910A0290910B02C0900402D0902F
:1015B0000502E0900602F0900702809000029090F1
:1015C0000102A0900202B09003029B01AC010E94B4
:1015D000410E2B013C01A7019601C701B6010E94F3
:1015E000410E9B01AC01C301B2010E94E70B2B012C
:1015F0003C01A5019401C501B4010E94410E9B016B
:10160000AC01C301B2010E94E70B0E947C0D9B015B
:10161000AC016093FC017093FD018093FE019093F7
:10162000FF01C701B6010E946E0C0E94530C21EE0F
:101630003EE245E652E40E94410E6093F801709349
:10164000F9018093FA019093FB0166E471E08FE663
:1016500092E00E946A0760910C0270910D028091E5
:101660000E0290910F0242E00E94800662E571E056
:101670008FE692E00E946A076091F8017091F9018B
:101680008091FA019091FB0142E00E94800662E69F
:1016900071E08FE692E00E946A0760911A027091F1
:1016A0001B02072E000C880B990B0E94E20D20E014
:1016B00030E048EC52E40E946E0C20E030E043E859
:1016C00052E40E946E0C42E00E9480066FE271E0DC
:1016D0008FE692E00E9422060E946C01C090F40105
:1016E000D090F501E090F601F090F701DC01CB011C
:1016F0008C199D09AE09BF0980319742A105B1053A
:1017000058F30E946C016093F4017093F50180938B
:10171000F6019093F7010E946201B7CD86169706F5
:10172000A806B90608F0C9CED0CEEFE6F2E01382E3
:10173000128288EE93E0A0E0B0E084839583A683D4
:10174000B78324E031E03183208325EC30E0358716
:10175000248724EC30E03787268720EC30E0318B7B
:10176000208B21EC30E0338B228B22EC30E0358B68
:10177000248B26EC30E0378B268B118E128E138E45
:10178000148EECE0F3E01682178210861186128622
:1017900013861486158616861786108A118A128A71
:1017A000138A148A158AE4E5F3E013821282848393
:1017B0009583A683B78384E191E091838083089524
:1017C000EE0FFF1F0590F491E02D09945058BB27B0
:1017D000AA270E94FE0B0C94C50E0E94B70E38F08B
:1017E0000E94BE0E20F039F49F3F19F426F40C94A9
:1017F000B40E0EF4E095E7FB0C94AE0EE92F0E94B8
:10180000D60E58F3BA17620773078407950720F0BE
:1018100079F4A6F50C94F80E0EF4E0950B2EBA2F81
:10182000A02D0B01B90190010C01CA01A0011124E6
:10183000FF27591B99F0593F50F4503E68F11A1692
:10184000F040A22F232F342F4427585FF3CF469523
:1018500037952795A795F0405395C9F77EF41F1645
:10186000BA0B620B730B840BBAF09150A1F0FF0F0F
:10187000BB1F661F771F881FC2F70EC0BA0F621FFB
:10188000731F841F48F4879577956795B795F795EB
:101890009E3F08F0B0CF9395880F08F09927EE0F80
:1018A0009795879508959F939F77EEE389379E07D5
:1018B00028F4E8E6F0E00E945D0D0CC00E94160DD1
:1018C0009058A2EA2AED3FE049EC5FE30E94FE0B4C
:1018D0000E94C50E0F9007FC905808950E94820C3C
:1018E0000C94C50E0E94BE0E58F00E94B70E40F038
:1018F00029F45F3F29F00C94AE0E51110C94F90EAF
:101900000C94B40E0E94D60E68F39923B1F35523BC
:1019100091F3951B550BBB27AA2762177307840702
:1019200038F09F5F5F4F220F331F441FAA1FA9F398
:1019300035D00E2E3AF0E0E832D091505040E69586
:10194000001CCAF72BD0FE2F29D0660F771F881FE7
:10195000BB1F261737074807AB07B0E809F0BB0BDA
:10196000802DBF01FF2793585F4F3AF09E3F5105EE
:1019700078F00C94AE0E0C94F90E5F3FE4F3983EB1
:10198000D4F3869577956795B795F7959F5FC9F7D7
:10199000880F911D9695879597F90895E1E0660F58
:1019A000771F881FBB1F621773078407BA0720F0D1
:1019B000621B730B840BBA0BEE1F88F7E09508953A
:1019C0000E94E70C6894B1110C94F90E08950E94DE
:1019D000DE0E88F09F5798F0B92F9927B751B0F0D5
:1019E000E1F0660F771F881F991F1AF0BA95C9F7A3
:1019F00014C0B13091F00E94F80EB1E008950C943B
:101A0000F80E672F782F8827B85F39F0B93FCCF3ED
:101A1000869577956795B395D9F73EF4909580951F
:101A2000709561957F4F8F4F9F4F0895DF93CF93B0
:101A30001F930F938B01EC01ECE7F0E00E94360D51
:101A40000E94C50E9801AE018B01EC0160E070E0D0
:101A500080E89FE30E94E60B0E947C0D9801AE0196
:101A60000F911F91CF91DF910C94540EDF93CF9380
:101A70001F930F93FF92EF92DF927B018C0168948A
:101A800006C0DA2EEF010E94540EFE01E894A591E3
:101A90002591359145915591A6F3EF010E94FE0BDA
:101AA000FE019701A801DA9469F7DF90EF90FF90AB
:101AB0000F911F91CF91DF9108959F938F937F9303
:101AC0006F93FF93EF939B01AC010E94410EEF9146
:101AD000FF910E94360D2F913F914F915F910C9491
:101AE000410E0E941D0E08F48FEF089519F416F4AC
:101AF0000C94B40E0C94C10D0E94DE0EB8F3992321
:101B0000C9F3B6F39F57550B87FF0E94CF0D0024F2
:101B1000A0E640EA900180585695979528F4805C9D
:101B2000660F771F881F20F026173707480730F405
:101B3000621B730B840B202931294A2BA69517941D
:101B40000794202531254A2758F7660F771F881FED
:101B500020F026173707480730F4620B730B840B0D
:101B6000200D311D411DA09581F7B901842F915899
:101B7000880F9695879508950E941D0E880B990BE6
:101B800008959F3F31F0915020F4879577956795A0
:101B9000B795880F911D9695879597F9089591505F
:101BA0005040660F771F881FD2F7089581E090E0BC
:101BB000F8940C94210F0E941D0E08F481E0089502
:101BC000E89409C097FB3EF49095809570956195D7
:101BD0007F4F8F4F9F4F9923A9F0F92F96E9BB278D
:101BE0009395F695879577956795B795F111F8CF09
:101BF000FAF4BB0F11F460FF1BC06F5F7F4F8F4F74
:101C00009F4F16C0882311F096E911C0772321F069
:101C10009EE8872F762F05C0662371F096E8862F01
:101C200070E060E02AF09A95660F771F881FDAF758
:101C3000880F9695879597F90895990F0008550F85
:101C4000AA0BE0E8FEEF16161706E807F907C0F042
:101C500012161306E407F50798F0621B730B840B4A
:101C6000950B39F40A2661F0232B242B252B21F424
:101C700008950A2609F4A140A6958FEF811D811DC4
:101C800008950E94540E0C94C50E0E94B70E38F0B1
:101C90000E94BE0E20F0952311F00C94AE0E0C9411
:101CA000B40E11240C94F90E0E94D60E70F3959F79
:101CB000C1F3950F50E0551F629FF001729FBB2743
:101CC000F00DB11D639FAA27F00DB11DAA1F649FDF
:101CD0006627B00DA11D661F829F2227B00DA11D92
:101CE000621F739FB00DA11D621F839FA00D611D18
:101CF000221F749F3327A00D611D231F849F600D39
:101D0000211D822F762F6A2F11249F5750409AF061
:101D1000F1F088234AF0EE0FFF1FBB1F661F771FED
:101D2000881F91505040A9F79E3F510580F00C94B8
:101D3000AE0E0C94F90E5F3FE4F3983ED4F3869513
:101D400077956795B795F795E7959F5FC1F7FE2B58
:101D5000880F911D9695879597F9089597F99F6734
:101D600080E870E060E008959FEF80EC0895002423
:101D70000A941616170618060906089500240A94F0
:101D800012161306140605060895092E0394000C76
:101D900011F4882352F0BB0F40F4BF2B11F460FF05
:101DA00004C06F5F7F4F8F4F9F4F089557FD90582E
:101DB000440F551F59F05F3F71F04795880F97FB0F
:101DC000991F61F09F3F79F08795089512161306C9
:101DD0001406551FF2CF4695F1DF08C016161706F8
:101DE0001806991FF1CF869571056105089408952D
:101DF000E894BB2766277727CB0197F90895A1E2DE
:101E00001A2EAA1BBB1BFD010DC0AA1FBB1FEE1F74
:101E1000FF1FA217B307E407F50720F0A21BB30BBF
:101E2000E40BF50B661F771F881F991F1A9469F73B
:101E300060957095809590959B01AC01BD01CF0197
:061E40000895F894FFCFA5
:101E460000000000F9002405C200A000B400400113
:101E5600000000002B02FB01F301DF01D001CF01DE
:101E6600564D4450565F317C315F564D4450560DA9
:101E76000A00564D4450455F003A323A007C005FF6
:101E8600564D445045007C416E676C655F58203D59
:101E960020007C416E676C655F585F616363203D1F
:101EA60020007C416E676C655F585F677972203DE4
:0E1EB60020006E616E00696E66006F76660039
:107800000C94343C0C94513C0C94513C0C94513CE1
:107810000C94513C0C94513C0C94513C0C94513CB4
:107820000C94513C0C94513C0C94513C0C94513CA4
:107830000C94513C0C94513C0C94513C0C94513C94
:107840000C94513C0C94513C0C94513C0C94513C84
:107850000C94513C0C94513C0C94513C0C94513C74
:107860000C94513C0C94513C11241FBECFEFD8E036
:10787000DEBFCDBF11E0A0E0B1E0ECE9FFE702C060
:1078800005900D92A230B107D9F712E0A2E0B1E065
:1078900001C01D92AD30B107E1F70E942D3D0C945F
:1078A000CC3F0C94003C982F959595959595959582
:1078B000905D8F708A307CF0282F295A8091C0000B
:1078C00085FFFCCF9093C6008091C00085FFFCCF60
:1078D0002093C6000895282F205DF0CF982F809127
:1078E000C00085FFFCCF9093C6000895EF92FF92F1
:1078F0000F931F93EE24FF2487018091C00087FD22
:1079000017C00894E11CF11C011D111D81E4E8164B
:1079100082E4F8068FE0080780E0180770F3E09132
:107920000401F091050109958091C00087FFE9CF1E
:107930008091C6001F910F91FF90EF9008950E94D3
:10794000763C982F8091C00085FFFCCF9093C600B5
:1079500091362CF490330CF09053892F089597555D
:10796000892F08951F930E949F3C182F0E949F3CCF
:107970001295107F810F1F9108951F93182F882350
:1079800021F00E94763C1150E1F71F9108951F935A
:10799000182F0E94763C803249F0809103018F5F5E
:1079A000809303018530C1F01F9108958091C0003C
:1079B00085FFFCCF84E18093C6008091C00085FFE5
:1079C000FCCF1093C6008091C00085FFFCCF80E102
:1079D0008093C6001F910895E0910401F091050184
:1079E00009951F9108950E94763C803241F0809164
:1079F00003018F5F80930301853081F008958091AA
:107A0000C00085FFFCCF84E18093C6008091C00058
:107A100085FFFCCF80E18093C6000895E0910401CA
:107A2000F09105010995089540E951E08823A1F0FE
:107A30002D9A28EE33E0FA013197F1F721503040CA
:107A4000D1F72D9828EE33E0FA013197F1F7215064
:107A50003040D1F7815061F708953F924F925F9285
:107A60006F927F928F929F92AF92BF92CF92DF924E
:107A7000EF92FF920F931F93CF93DF93000080E16B
:107A80008093C4001092C50088E18093C10086E015
:107A90008093C2005098589A259A81E00E94143D24
:107AA00024E1F22E9EE1E92E85E9D82E0FE0C02ECA
:107AB00010E1B12EAA24A394B1E49B2EA6E58A2E50
:107AC000F2E57F2EE0E26E2E79E4572E63E5462E36
:107AD00050E5352E0E94763C8033B1F18133B9F107
:107AE000803409F46FC0813409F476C0823409F41B
:107AF00085C0853409F488C0803531F1823521F1A3
:107B0000813511F1853509F485C0863509F48DC0BC
:107B1000843609F496C0843709F403C1853709F423
:107B200072C1863709F466C0809103018F5F80932C
:107B30000301853079F6E0910401F0910501099582
:107B40000E94763C803351F60E94F33CC3CF0E94E2
:107B5000763C803249F78091C00085FFFCCFF092DF
:107B6000C6008091C00085FFFCCF9092C600809136
:107B7000C00085FFFCCF8092C6008091C00085FFC9
:107B8000FCCF7092C6008091C00085FFFCCF609250
:107B9000C6008091C00085FFFCCF5092C600809146
:107BA000C00085FFFCCF4092C6008091C00085FFD9
:107BB000FCCF3092C6008091C00085FFFCCFB09210
:107BC000C60088CF0E94763C863808F4BDCF0E945C
:107BD000763C0E94F33C7ECF0E94763C803809F4CC
:107BE0009CC0813809F40BC1823809F43CC1883942
:107BF00009F48FC080E00E94C73C6CCF84E10E94F2
:107C0000BD3C0E94F33C66CF85E00E94BD3C0E94D3
:107C1000F33C60CF0E94763C809306010E94763C44
:107C2000809307010E94F33C55CF0E94763C80333D
:107C300009F41DC183E00E94BD3C80E00E94C73C66
:107C400049CF0E94763C809309020E94763C809343
:107C5000080280910C028E7F80930C020E94763C79
:107C6000853409F415C18091080290910902892B8D
:107C700089F000E010E00E94763CF801E85FFE4FDA
:107C800080830F5F1F4F80910802909109020817AF
:107C9000190788F30E94763C803209F045CF809125
:107CA0000C0280FF01C16091060170910701660F0F
:107CB000771F7093070160930601A0910802B091AD
:107CC00009021097C9F0E8E0F1E09B01AD014E0F09
:107CD0005F1FF999FECF32BD21BD819180BDFA9A17
:107CE000F99A2F5F3F4FE417F50799F76A0F7B1F4B
:107CF00070930701609306018091C00085FFFCCF5F
:107D0000F092C6008091C00085FFFCCFB092C60003
:107D1000E1CE83E00E94C73CDDCE82E00E94C73CFA
:107D2000D9CE0E94763C809309020E94763C8093D3
:107D300008028091060190910701880F991F909386
:107D40000701809306010E94763C853409F4A6C0A1
:107D500080910C028E7F80930C020E94763C8032D0
:107D600009F0B8CE8091C00085FFFCCFF092C6002C
:107D7000609108027091090261157105B9F140E046
:107D800050E080910C02A82FA170B82FB27011C0E2
:107D9000BB2309F45CC0E0910601F0910701319624
:107DA000F0930701E09306014F5F5F4F46175707B7
:107DB000E8F4AA2369F3F999FECF209106013091E6
:107DC000070132BD21BDF89A90B58091C00085FFB2
:107DD000FCCF9093C6002F5F3F4F30930701209355
:107DE00006014F5F5F4F4617570718F38091C00099
:107DF00085FDE5CE8091C00085FFF8CFE0CE81E023
:107E00000E94C73C67CE0E94763C803209F08CCE3F
:107E10008091C00085FFFCCFF092C6008091C00029
:107E200085FFFCCFE092C6008091C00085FFFCCFAB
:107E3000D092C6008091C00085FFFCCFC092C600E2
:107E40008091C00085FFFCCFB092C60043CEE09188
:107E50000601F091070194918091C00085FFFCCF4D
:107E60009093C6009CCF80E10E94C73C33CE0E9415
:107E7000763C0E94763C182F0E94763C112309F430
:107E800083C0113009F484C08FE00E94C73C22CE29
:107E900080910C02816080930C02E5CE80910C02EF
:107EA000816080930C0259CF809107018823880F4D
:107EB000880B8A2180930B02809106019091070123
:107EC000880F991F90930701809306018091080203
:107ED00080FF09C080910802909109020196909359
:107EE000090280930802F894F999FECF1127E091D6
:107EF0000601F0910701C8E0D1E08091080290915D
:107F00000902103091F40091570001700130D9F34B
:107F100003E000935700E89500915700017001308D
:107F2000D9F301E100935700E89509901990009169
:107F3000570001700130D9F301E000935700E89534
:107F40001395103498F011270091570001700130FB
:107F5000D9F305E000935700E895009157000170B0
:107F60000130D9F301E100935700E895329602976A
:107F700009F0C7CF103011F00296E5CF112480919F
:107F8000C00085FFB9CEBCCE8EE10E94C73CA2CD19
:0C7F900085E90E94C73C9ECDF894FFCF0D
:027F9C00800063
:040000030000780081
:00000001FF